:100D4400456E7465722050617373776F726400200E
:100D540000414343455353204752414E54454400B8
:0E0D64004143434553532044454E4945440006
:100E0D00042E43415400022CFFFF012B00012A0048
:060E1D00010900010800BC
:100DDB007F80120E247F38120E247F01120E247F87
:090DEB000E120E247F06020E24F4
:0E0E24008F90C2A4D2A57F14120D72C2A52217
:0E0E32008F90D2A4D2A57F14120D72C2A522F9
:100D7200E4FDFCEFFBC3ED9BEC94005015E4FBFAA1
:100D82000BBB00010ABA04F8BBFBF50DBD00010C58
:020D920080E1FE
:010D9400223C
:100D95008B328A338934AB32AA33A934120DF4FF6E
:100DA5006010120E3274012534F534E43533F53311
:030DB50080E422B5
:100D0C00C2A7C2A6120DDBE4F5A075B0FF7F81125D
:100D1C000E247BFF7A0D7944120D957F64120DB869
:100D2C00742E252BF8E66006052A052B80F27F0130
:080D3C00120E2412080080FBD6
:10080000C2A0D2A3D2A2D2A120B01E052DE52D7088
:1008100002052C7F1E120DB820B0077F41120E3248
:1008200080F6740A252DF8764120B11E052DE52DA0
:100830007002052C7F1E120DB820B1077F42120EE8
:100840003280F6740A252DF8764220B21E052DE579
:100850002D7002052C7F1E120DB820B2077F4312A7
:100860000E3280F6740A252DF8764320B31E052D2E
:10087000E52D7002052C7F1E120DB820B3077F44B2
:10088000120E3280F6740A252DF8764420B41E0527
:100890002DE52D7002052C7F1E120DB820B4077FA8
:1008A00045120E3280F6740A252DF8764520B51EC5
:1008B000052DE52D7002052C7F1E120DB820B50701
:1008C0007F46120E3280F6740A252DF8764620B641
:1008D0001E052DE52D7002052C7F1E120DB820B6C9
:1008E000077F47120E3280F6740A252DF8764720CE
:1008F000B71E052DE52D7002052C7F1E120DB820A8
:10090000B7077F48120E3280F6740A252DF8764814
:10091000C2A1D2A3D2A2D2A020B01E052DE52D7077
:1009200002052C7F1E120DB820B0077F49120E322F
:1009300080F6740A252DF8764920B11E052DE52D87
:100940007002052C7F1E120DB820B1077F4A120ECF
:100950003280F6740A252DF8764A20B21E052DE560
:100960002D7002052C7F1E120DB820B2077F4B128E
:100970000E3280F6740A252DF8764B20B31E052D15
:10098000E52D7002052C7F1E120DB820B3077F4C99
:10099000120E3280F6740A252DF8764C20B41E050E
:1009A0002DE52D7002052C7F1E120DB820B4077F97
:1009B0004D120E3280F6740A252DF8764D20B51EA4
:1009C000052DE52D7002052C7F1E120DB820B507F0
:1009D0007F4E120E3280F6740A252DF8764E20B620
:1009E0001E052DE52D7002052C7F1E120DB820B6B8
:1009F000077F4F120E3280F6740A252DF8764F20AD
:100A0000B71E052DE52D7002052C7F1E120DB82096
:100A1000B7077F50120E3280F6740A252DF87650F3
:100A2000C2A2D2A3D2A0D2A120B01E052DE52D7066
:100A300002052C7F1E120DB820B0077F51120E3216
:100A400080F6740A252DF8765120B11E052DE52D6E
:100A50007002052C7F1E120DB820B1077F52120EB6
:100A60003280F6740A252DF8765220B21E052DE547
:100A70002D7002052C7F1E120DB820B2077F531275
:100A80000E3280F6740A252DF8765320B31E052DFC
:100A9000E52D7002052C7F1E120DB820B3077F5480
:100AA000120E3280F6740A252DF8765420B41E05F5
:100AB0002DE52D7002052C7F1E120DB820B4077F86
:100AC00055120E3280F6740A252DF8765520B51E83
:100AD000052DE52D7002052C7F1E120DB820B507DF
:100AE0007F56120E3280F6740A252DF8765620B6FF
:100AF0001E052DE52D7002052C7F1E120DB820B6A7
:100B0000077F57120E3280F6740A252DF87657208B
:100B1000B71E052DE52D7002052C7F1E120DB82085
:100B2000B7077F58120E3280F6740A252DF87658D2
:100B3000C2A3D2A0D2A2D2A120B01E052DE52D7055
:100B400002052C7F1E120DB820B0077F59120E32FD
:100B500080F6740A252DF8765920B11E052DE52D55
:100B60007002052C7F1E120DB820B1077F5A120E9D
:100B70003280F6740A252DF8765A20B222052DE52A
:100B80002D7002052C7F1E120DB820B20B7BFF7A50
:100B90000D7953120D9580F2740A252DF8762020D8
:100BA000B31A7F1E120DB820B3126308FFE5087058
:100BB000047F8080027FC0120E2480EB20B4177F58
:100BC0001E120DB820B4077F10120E2480F6E52DFA
:100BD000152D7002152C20B5177F1E120DB820B5EB
:100BE000077F14120E2480F6052DE52D7002052CCA
:100BF00020B62DE4F52B740A252BF8E4F6052BE539
:100C00002BB420F27F1E120DB820B6147F01120EF5
:100C10002474FFF52CF52DE4F509C2A6C2A780E9DE
:100C200020B75C7F1E120DB820B754E4F52BE52BDE
:100C3000C3952A5016742E252BF8E6FF740A252B2F
:100C4000F8E6B507020509052B80E3E509B52A1684
:100C5000D2A6C2A77F01120E247F81120E247BFF31
:100C60007A0D79558014D2A7C2A67F01120E247F77
:100C700081120E247BFF7A0D7964120D9580A922D2
:100DB800E4FDFCEFFBC3ED9BEC94005015E4FBFA5B
:100DC8000BBB00010ABA02F8BBBCF50DBD00010C53
:020DD80080E1B8
:010DDA0022F6
:03000000020C806F
:0C0C8000787FE4F6D8FD758134020CC7C3
:100DF400BB010689828A83E0225002E722BBFE02FD
:090E0400E32289828A83E493222F
:100C8C00020D0CE493A3F8E493A34003F68001F265
:100C9C0008DFF48029E493A3F85407240CC8C33369
:100CAC00C4540F4420C8834004F456800146F6DF38
:100CBC00E4800B0102040810204080900E0DE47EAD
:100CCC00019360BCA3FF543F30E509541FFEE4932D
:100CDC00A360010ECF54C025E060A840B8E493A3F4
:100CEC00FAE493A3F8E493A3C8C582C8CAC583CA1F
:100CFC00F0A3C8C582C8CAC583CADFE9DEE780BED7
:010E230000CE
:00000001FF
